:100000000C9455030C94D01D0C94FD1D0C947D0391
:100010000C947D030C947D030C9499030C947D0344
:100020000C947D030C947D030C947D030C947D0350
:100030000C947D030C947D030C947D030C947D0340
:100040000C942A1E0C947D030C948B210C94BD21DE
:100050000C947D030C947D030C947D030C947D0320
:100060000C944E1B0C947D038C0B1E0B970B970B63
:10007000970B970B420B970B0A0B970B970B970B52
:10008000970B970B970B580B6A0B970B8C0B970BD7
:10009000970B750B737461727475702E2E2E004F52
:1000A00070656E456E657267794D6F6E69746F72BB
:1000B0002E6F726700656D6F6E506920560020626A
:1000C0000A00202D3E2000290028002000200020CA
:1000D00000203F004F4B0020282D30290020004FEA
:1000E0004B2000204E6574776F726B2000393135DC
:1000F0004D687A003836384D687A003433334D68AD
:100100007A00204672657120004E6F6465200052AF
:10011000464D3639435720496E69743A2000426F84
:100120006F74696E672E2E2E005261737062657255
:10013000727920506900445331384232302054657E
:100140006D700044657465637465643A2000302006
:100150004453313842323020646574656374656499
:1001600000445331384232302054656D700044658C
:100170007465637465643A20002044533138423218
:100180003000446574656374200043543420004398
:100190005420342064657465637400435433200034
:1001A00043542033206465746563740043543220E3
:1001B00000435420322064657465637400435431F5
:1001C00020004354203120646574656374004E6FD1
:1001D0002043542773006E6F204354206465746578
:1001E000637465640043543A20005600417373758C
:1001F0006D696E672056524D533A20005553412089
:100200006D6F6465004143204E4F542064657465F2
:1002100063746564202D204170706172656E742076
:10022000506F7765722063616C6320656E61626CEC
:100230006564004143204E4F5420446574656374E7
:1002400065640050686173652053686966743A207C
:1002500000560056726D733A20005663616C3A2066
:1002600000555341206D6F6465203E2000414320BE
:1002700057617665204465746563746564202D203C
:100280005265616C20506F7765722063616C6320EA
:10029000656E61626C65640041432057617665203C
:1002A000446574656374656400560056524D53206E
:1002B0004143207E00435420342043616C3A2000A7
:1002C000435420332043616C3A20004354203220B1
:1002D00043616C3A2000435420312043616C3A2042
:1002E000004F70656E456E657267794D6F6E006583
:1002F0006D6F6E506920560020002055534120003C
:10030000207100204D487A00204020002067002006
:10031000690020005D005B656D6F6E50692E000AFC
:10032000417661696C61626C6520636F6D6D616EB1
:1003300064733A0A20203C6E6E3E20692020202003
:10034000202D20736574206E6F64652049447320EE
:10035000287374616E64617264206E6F64652069D5
:1003600064732061726520312E2E3330290A2020DB
:100370003C6E3E20622020202020202D20736574BA
:10038000204D487A2062616E64202834203D20345C
:1003900033332C2038203D203836382C2039203D6E
:1003A00020393135290A20203C6E6E6E3E206720B0
:1003B0002020202D20736574206E6574776F726B1A
:1003C0002067726F7570202852464D3132206F6E53
:1003D0006C7920616C6C6F7773203231322C203055
:1003E000203D20616E79290A20203C6E3E2063204A
:1003F00020202020202D2073657420636F6C6C6595
:100400006374206D6F64652028616476616E636536
:10041000642C206E6F726D616C6C792030290A201B
:10042000202E2E2E2C3C6E6E3E2061202D207365DA
:100430006E642064617461207061636B6574207404
:100440006F206E6F6465203C6E6E3E2C207265716D
:10045000756573742061636B0A20202E2E2E2C3C50
:100460006E6E3E2073202D2073656E64206461746F
:1004700061207061636B657420746F206E6F6465BA
:10048000203C6E6E3E2C206E6F2061636B0A202034
:100490002E2E2E2C3C6E3E207020202D2053657475
:1004A0002041432041646170746572205663616C21
:1004B000203170203D20554B2C203270203D20559E
:1004C00053410A2020762020202020202020202098
:1004D0002D2053686F77206669726D776172652091
:1004E00076657273696F6E0A20203C6E3E20712023
:1004F00020202020202D207365742071756965747B
:10050000206D6F6465202831203D20646F6E277454
:10051000207265706F727420626164207061636B19
:10052000657473290A00010402000302048A0505A8
:1005300006C30B2019421E2C25802E882F2D370034
:1005400038003C8F3D106F2000005EBCE2613FDD53
:1005500083C29C7E20A3FD1F419DC3217FFCA2403E
:100560001E5F01E3BD3E6082DC237D9FC1421CFE15
:10057000A0E1BF5D0380DE3C62BEE0025CDF816320
:100580003D7C22C09E1D43A1FF4618FAA427799BFB
:10059000C584DA3866E5BB5907DB856739BAE406F6
:1005A000581947A5FB7826C49A653BD987045AB8E1
:1005B000E6A7F91B45C6987A24F8A6441A99C725D8
:1005C0007B3A6486D85B05E7B98CD2306EEDB351C7
:1005D0000F4E10F2AC2F7193CD114FADF3702ECCA6
:1005E00092D38D6F31B2EC0E50AFF1134DCE9072AD
:1005F0002C6D33D18F0C52B0EE326C8ED0530DEF88
:10060000B1F0AE4C1291CF2D73CA947628ABF5178A
:10061000490856B4EA6937D58B5709EBB536688A6D
:10062000D495CB2977F4AA4816E9B7550B88D63468
:100630006A2B7597C94A14F6A8742AC896154BA94F
:10064000F7B6E80A54D7896B3500000008000201AC
:100650000000030407000000000000000001020485
:100660000810204080010204081020010204081034
:10067000200404040404040404020202020202032B
:1006800003030303030000000023002600290000E9
:10069000000000250028002B000000000024002797
:1006A000002A0000300AB01AED2111241FBECFEF3E
:1006B000D8E0DEBFCDBF11E0A0E0B1E0E2E8FFE4AA
:1006C00002C005900D92AE37B107D9F725E0AEE72D
:1006D000B1E001C01D92AE35B207E1F716E0CAEAFB
:1006E000D6E004C02297FE010E949227C43AD107A7
:1006F000C9F70E9431220C94BF270C9400001F936D
:10070000CF93DF93EC01FE011491112371F01A30A5
:1007100029F46DE081EC94E00E94A522612F81EC28
:1007200094E00E94A5222196EECFDF91CF911F91F8
:1007300008951F920F920FB60F9211242F933F939B
:100740004F935F936F937F938F939F93AF93BF93D9
:10075000EF93FF930E94120EFF91EF91BF91AF9123
:100760009F918F917F916F915F914F913F912F91C9
:100770000F900FBE0F901F90189561E08DE00E94C2
:10078000ED1F62E370E080E090E00E94A31E60E055
:100790008DE00C94ED1F61E08DE00E94ED1F69E19A
:1007A00070E080E090E00E94A31E60E08DE00E9477
:1007B000ED1F61E08DE00E94ED1F69E170E080E0D7
:1007C00090E00E94A31E60E08DE00C94ED1FCF939B
:1007D000DF93EC0184EF93E00E94841A68817981B1
:1007E00084EF93E00E94981A84EF93E00E94AD1A80
:1007F0008823B9F06A817B8184EF93E00E94981A84
:1008000084EF93E00E94AD1A811102C0229609C0C4
:100810006DE171E081EC94E00E94C22280E090E002
:1008200010C06BE271E081EC94E00E94A322688129
:10083000798140E150E081EC94E00E947F2388813F
:100840009981DF91CF910895CF93DF93CDB7DEB734
:100850002C970FB6F894DEBF0FBECDBF22E040E16B
:1008600060912902CE0101960E947B1CCE01019667
:100870000E949E1DCE0101960E94A41C6FEE72E0A4
:10088000CE0101960E947E2222E030E041EE5AE73E
:1008900064E370E4CE0101960E949C2441E060E094
:1008A000CE0101960E94051D61EE72E0CE01019617
:1008B0000E947E222C960FB6F894DEBF0FBECDBFED
:1008C000DF91CF910895CF93DF93CDB7DEB72C970B
:1008D0000FB6F894DEBF0FBECDBF22E040E1682F17
:1008E000CE0101960E947B1CCE0101960E94F71C4E
:1008F000CE0101960E94A41C66ED72E081EC94E0AA
:100900000E947E2222E030E040E050E063EB72E49F
:1009100081EC94E00E949E246BEC72E081EC94E008
:100920000E947E2222E030E040E050E063EB72E47F
:1009300081EC94E00E949E2460EC72E081EC94E0F3
:100940000E947E2222E030E040E050E063EB72E45F
:1009500081EC94E00E949E2465EB72E081EC94E0CF
:100960000E947E2222E030E040E050E063EB72E43F
:1009700081EC94E00E949E246BEA72E081EC94E0AA
:100980000E947E224091DE015091DF016091E001E2
:100990007091E10122E030E081EC94E00E949C241F
:1009A00069EA72E081EC94E00E94B0228091D90162
:1009B000882309F44FC068E972E0CE0101960E94D5
:1009C0007E226DE672E081EC94E00E94B02280917C
:1009D0000B01882331F061E672E081EC94E00E9423
:1009E0007E226AE572E081EC94E00E947E224091D2
:1009F000E2015091E3016091E4017091E50122E090
:100A000030E081EC94E00E949E2463E572E081EC8A
:100A100094E00E947E224AE050E06091D60181EC91
:100A200094E00E94A42361E572E081EC94E00E94CE
:100A3000B02263E472E081EC94E00E947E2222E026
:100A400030E04AE959E969ED7FE381EC94E00E94E6
:100A50009E242AC063E372E0CE0101960E947E22AA
:100A600065E072E081EC94E00E94B02280910B017D
:100A7000882331F06CEF71E081EC94E00E94B022A9
:100A80006CEE71E081EC94E00E947E224AE050E03E
:100A90006091D60181EC94E00E94A4236AEE71E09B
:100AA00081EC94E00E94B02241E060E0CE0101962A
:100AB0000E94051D65EE71E0CE0101960E947E2226
:100AC0008091D701811109C066ED71E081EC94E05D
:100AD0000E94B0226EEC71E03CC08091DD01882361
:100AE00061F062EC71E081EC94E00E94B0226DEB69
:100AF00071E0CE0101960E947E228091DC01882364
:100B000061F061EB71E081EC94E00E94B0226CEA4C
:100B100071E0CE0101960E947E228091DB01882344
:100B200061F060EA71E081EC94E00E94B0226BE930
:100B300071E0CE0101960E947E228091DA01882325
:100B400061F06FE871E081EC94E00E94B0226AE805
:100B500071E0CE0101960E947E2260ED77E080E098
:100B600090E00E94A31E8091D801882379F162E869
:100B700071E081EC94E00E947E224AE050E06091B6
:100B8000F20181EC94E00E94A42369E771E081EC1A
:100B900094E00E94B022CE0101960E94F71C6EE6FE
:100BA00071E0CE0101960E947E224AE050E0609101
:100BB000F201CE0101960E94A42341E060E0CE0143
:100BC00001960E94051D61E671E020C06EE471E0AF
:100BD00081EC94E00E94B022CE0101960E94F71CA5
:100BE00063E471E0CE0101960E947E224AE050E06B
:100BF0006091F201CE0101960E94A42341E060E0E1
:100C0000CE0101960E94051D66E371E0CE010196BA
:100C10000E947E2260ED77E080E090E00E94A31EBB
:100C2000CE0101960E94F71C69E271E0CE010196A7
:100C30000E947E2241E060E0CE0101960E94051DE7
:100C40006EE171E0CE0101960E947E2280911C022D
:100C5000882309F44CC06FE071E081EC94E00E94BD
:100C6000B02269E071E081EC94E00E947E224AE0CB
:100C700050E06091090181EC94E00E94A42362E0BD
:100C800071E081EC94E00E947E2280910A01813023
:100C900031F46BEF70E081EC94E00E947E22809151
:100CA0000A01823031F464EF70E081EC94E00E943C
:100CB0007E2280910A01833031F46DEE70E081EC88
:100CC00094E00E947E2263EE70E081EC94E00E944A
:100CD0007E2260910701709108014AE050E081ECAA
:100CE00094E00E947F238FE193E00E947F0364E100
:100CF00070E080E090E00E94A31E2C960FB6F8945E
:100D0000DEBF0FBECDBFDF91CF910895EF92FF926E
:100D10000F931F93CF93DF93CDB7DEB72C970FB60A
:100D2000F894DEBF0FBECDBF8CE0E6EEF1E0DE0151
:100D3000119601900D928A95E1F76FED70E081ECCC
:100D400094E00E947E224AE050E06091090181EC2B
:100D500094E00E94A4238E010F5F1F4F7E018DE05F
:100D6000E80EF11C6DED70E081EC94E00E947E22B3
:100D7000F80161918F014AE050E081EC94E00E941B
:100D8000A4230E151F0571F767ED70E081EC94E068
:100D90000E947E2281EC94E00E94AC226AE070E026
:100DA00080E090E02C960FB6F894DEBF0FBECDBF6A
:100DB000DF91CF911F910F91FF90EF900C94A31EA4
:100DC000CF93DF936AE070E080E090E00E94A31E82
:100DD00020E436E04091070160910A018091090109
:100DE0000E941D10CAE0D0E0D093E701C093E60155
:100DF0004CE066EE71E080E00E948C1064E670E0EA
:100E000080E090E00E94A31E219770F782E00E948C
:100E1000AB101092E7011092E601DF91CF91089597
:100E20001F93CF93DF93EC016FEC70E081EC94E0C3
:100E30000E947E226091AB036F7170E04AE050E047
:100E400081EC94E00E9477236DEC70E081EC94E0FB
:100E50000E947E2210E0212F30E02C173D079CF4E9
:100E6000F901E355FC4F608170E04AE050E081EC0D
:100E700094E00E94AB236BEC70E081EC94E00E9464
:100E80007E221F5FE8CF69EC70E081EC94E00E9465
:100E90007E226091A00370E07595679571956195CC
:100EA00071094AE050E081EC94E00E94772367ECFE
:100EB00070E081EC94E00E947E2281EC94E0DF916E
:100EC000CF911F910C94AC220E947610882349F197
:100ED0008091F2039091F303892BA1F464ED70E00B
:100EE00081EC94E00E947E228091AC0390E00E940D
:100EF00010078091AB0385FF22C08091AB0387FF71
:100F000011C01DC08091060181111BC061ED70E010
:100F100081EC94E00E947E2284E190E00E94100720
:100F200010C008958091AB0386FD0DC08091AB0386
:100F30008F71806C40E060E070E00E948A1081E078
:100F4000089580E0089580E8F5CF8091800188239E
:100F5000D1F10E948810811101C0089561E08DE0F7
:100F60000E94ED1F68EC70E080E090E00E94A31EFC
:100F700060E08DE00E94ED1F82EC90E00E947F0314
:100F80006091820170E04AE050E081EC94E00E94C0
:100F9000AB238EEB90E00E947F038091800181362D
:100FA00081F080E090918101992311F09064892B68
:100FB0004091820164E871E00E948A1010928001E1
:100FC000089580E2EFCF0895BF92CF92DF92EF9223
:100FD000FF920F931F93CF93DF93B82EEB0100E0A6
:100FE00010E0C12CD12C76010C171D077CF48B2D41
:100FF0000E940F1FDC01B2509D010E949627C60E71
:10100000D71EE81EF91E0F5F1F4FEECFC701B601B6
:101010000E94B3256B017C01BE01882777FD809576
:10102000982F0E94B5259B01AC01C701B6010E9413
:101030001A25DF91CF911F910F91FF90EF90DF90D4
:10104000CF90BF900C94D02661E08DE00E94B41F39
:1010500061E08DE00E94ED1F62E089E00E94B41F14
:1010600061E088E00E94B41F60E088E00E94ED1F0C
:1010700026E040E056E960E070E081EC94E00E94F8
:101080002F2165EB70E081EC94E00E947E2222E04B
:1010900030E041EE5AE764E370E481EC94E00E94B2
:1010A0009E246FE970E081EC94E00E94B02264E934
:1010B00070E081EC94E00C94B02281E10E940F1F5B
:1010C000181619064CF481E08093DD018091D70158
:1010D0008F5F8093D70102C01092DD0180E10E94F2
:1010E0000F1F181619064CF481E08093DC018091E3
:1010F000D7018F5F8093D70102C01092DC018FE08F
:101100000E940F1F181619064CF481E08093DB0132
:101110008091D7018F5F8093D70102C01092DB01CD
:1011200085E10E940F1F181619064CF481E0809388
:10113000DA018091D7018F5F8093D70102C01092AE
:10114000DA0160E08DE00E94ED1F61E08EE00E9418
:10115000B41F6FEF70E08EE00E942C1F60E070E023
:101160008EE00E942C1F60E08EE00E94B41F64EFAE
:1011700071E080E090E00E94A31E64EF76E080E0E2
:1011800090E00E94E40720E030E040E05FE30E944E
:1011900069266093DE017093DF018093E0019093F4
:1011A000E10120E030E044EB52E40E94652618168D
:1011B00024F481E08093D90108951092D901089513
:1011C000CF938BEF91E00E9472188BEF91E00E9419
:1011D000D8168093F201C0E08091F201C81768F43C
:1011E00088E0C89FB00111246D507E4F4C2F8BEFCB
:1011F00091E00E94EA16811122C0C0E08091F201C4
:10120000C81768F488E0C89FB00111246D507E4F64
:101210004CE08BEF91E00E94FC17CF5FEFCF811184
:1012200003C01092D80107C091E09093D80182309A
:1012300010F09093F2018091F201CF910895CF5F69
:10124000CBCFEF92FF920F931F93CF93DF93CDB746
:10125000DEB72C970FB6F894DEBF0FBECDBF64E6A5
:1012600070E080E090E00E94A31E80910B01882333
:1012700071F086E696EEA7E9B2E48093E2019093DE
:10128000E301A093E401B093E5018EE611C08091E3
:101290000C0190910D01A0910E01B0910F0180936E
:1012A000E2019093E301A093E401B093E50186EE9F
:1012B0008093D6010E94240880911C0281110E9413
:1012C000E0060E94E00880E191E00E94E70380933D
:1012D000290290932A0222E040E1682FCE01019674
:1012E0000E947B1C8091290290912A020E94240472
:1012F00060ED77E080E090E00E94A31E0E945D0810
:101300008091290290912A020E94630420E030E03B
:1013100043EB52E461E170E08FE393E00E94E6105A
:1013200020E030E043EB52E460E170E083EE92E0D5
:101330000E94E61020E030E043EB52E46FE070E002
:1013400087E892E00E94E61020E030E043EB52E4B0
:1013500065E170E08BE292E00E94E6108091D90195
:101360008823F1F12091E2013091E3014091E40101
:101370005091E5011AE9E12E19E9F12E09ED1FE37B
:1013800060E070E08FE393E00E94CA102091E201D8
:101390003091E3014091E4015091E50160E070E09B
:1013A00083EE92E00E94CA102091E2013091E301A5
:1013B0004091E4015091E50160E070E087E892E03F
:1013C0000E94CA102091E2013091E3014091E401B2
:1013D0005091E50160E070E08BE292E00E94CA105B
:1013E0002C960FB6F894DEBF0FBECDBFDF91CF9124
:1013F0001F910F91FF90EF900895CF92DF92EF929F
:10140000FF9298E0899FB00111246D507E4F8BEFC1
:1014100091E00E94E9196B017C0120E030E04AEF85
:1014200052E40E94162587FF16C020E030E04CE50C
:1014300052ECC701B6010E946526181664F420E03C
:1014400030E040E251E4C701B6010E9469260E94E3
:101450008225CB0100C0FF90EF90DF90CF900895E0
:1014600020E040E060E08DE192E00E947B1C63E0C0
:101470008EE092E00E9403166EE072E08BEF91E046
:101480000C94C916CF92DF92EF92FF920F931F93A5
:101490000E94741E6093CE017093CF018093D0019F
:1014A0009093D10180910B01882371F086E696EE2E
:1014B000A7E9B2E48093E2019093E301A093E401F1
:1014C000B093E5018EE611C080910C0190910D0161
:1014D000A0910E01B0910F018093E2019093E3017E
:1014E000A093E401B093E50186EE8093D6012091AC
:1014F000E2013091E3014091E4015091E5011AE9E4
:10150000E12E19E9F12E09ED1FE360E070E08FE3B1
:1015100093E00E94CA102091E2013091E3014091D2
:10152000E4015091E50160E070E083EE92E00E94FA
:10153000CA102091E2013091E3014091E401509101
:10154000E50160E070E087E892E00E94CA10209117
:10155000E2013091E3014091E4015091E50160E046
:1015600070E08BE292E00E94CA1089E00E94232082
:10157000892B11F461E001C060E088E00E94ED1F5A
:1015800081EC94E00E944C20892B09F458C181EC35
:1015900094E00E94652090ED980F9A30A8F4409155
:1015A0007E0150917F019AE0949F9001959F300DAC
:1015B000112420533109280F311D87FD3A953093AE
:1015C0007F0120937E0139C18C3281F4E091830147
:1015D000E63408F02EC181E08E0F80938301F0E0A5
:1015E000EC57FE4F80917E01808323C181320CF441
:1015F0001EC1482F552747FD5095652F752FFA01BD
:10160000E156F109E631F10508F091C0EC5CFF4FBD
:101610000C94902780917E0190917F01009771F04A
:101620008093090120911C02222309F484C020E444
:1016300036E04091070160910A0137C080917E0138
:10164000843031F0883031F0893031F463E005C006
:1016500061E003C062E001C060E0862F90E09093FB
:101660007F0180937E01892B09F465C060930A0194
:1016700080911C02882309F45EC020E436E040918A
:10168000070111C040917E0180917F0140930701C5
:101690008093080180911C02882309F44CC020E447
:1016A00036E060910A01809109010E941D1043C03B
:1016B00080917E0190917F010097E9F18130910541
:1016C00019F410920B0137C00297A9F581E08093BD
:1016D0000B0131C021E080917E0190917F01892B27
:1016E00009F420E02093060126C066E173E081EC56
:1016F00094E00E947E2222E030E04AE959E961EE5E
:1017000071E481EC94E00E949C2464E173E081EC3C
:1017100094E00E947E220FC080938001809183011B
:101720008093820180917E018093810104C08FE1CA
:1017300093E00E947F0380911C02882309F462C019
:1017400062E173E081EC94E00E947E2260910901E5
:101750006F71605C81EC94E00E94A5226FE073E001
:1017600081EC94E00E947E22609109016F7170E02B
:101770004AE050E081EC94E00E9477236CE073E053
:1017800081EC94E00E947E22609107017091080133
:101790004AE050E081EC94E00E94772368E073E037
:1017A00081EC94E00E947E2280910A01813039F020
:1017B000823041F0833049F463E973E008C061EBA3
:1017C00071E005C064E673E002C060E070E04AE0EA
:1017D00050E081EC94E00E94772363E073E081ECB9
:1017E00094E00E947E2260E073E081EC94E00E942D
:1017F0007E226091060170E04AE050E081EC94E0C6
:101800000E9477236AEF72E081EC94E00E947E22CE
:1018100060910B0170E04AE050E081EC94E00E949E
:10182000772368EF72E081EC94E00E94B02210927E
:10183000830110927F0110927E010E94CB03809160
:101840001C02882351F10E94640781110E94CB037E
:101850000E94A5078091CE019091CF01A091D00167
:10186000B091D1014091CA015091CB016091CC015E
:101870007091CD01841B950BA60BB70B81369A4E48
:10188000AF4FBF4F50F020E436E040910701609128
:101890000A01809109010E941D108091CE01909152
:1018A000CF01A091D001B091D1014091D2015091CE
:1018B000D3016091D4017091D501841B950BA60BC7
:1018C000B70B89389341A105B10508F4A4C10E9462
:1018D000BD039091D9018091DD01992371F1882395
:1018E00009F448C040ED57E064E170E08FE393E015
:1018F0000E941D1160913F0370914003809141034C
:10190000909142030E9482257093E7016093E60163
:1019100020E030E048EC52E460914B0370914C03BE
:1019200080914D0390914E030E9469260E9482256A
:101930007093EF016093EE011DC08823D9F068EC2D
:1019400075E08FE393E00E94EE136B017C016091E0
:10195000D60170E080E090E00E94B5259B01AC01CB
:10196000C701B6010E9469260E9482257093E70193
:101970006093E6019091D9018091DC01992371F186
:10198000882309F448C040ED57E064E170E083EE3D
:1019900092E00E941D116091E3027091E402809137
:1019A000E5029091E6020E9482257093E90160931E
:1019B000E80120E030E048EC52E46091EF027091E1
:1019C000F0028091F1029091F2020E9469260E9439
:1019D00082257093EF016093EE011DC08823D9F03A
:1019E00068EC75E083EE92E00E94EE136B017C01DF
:1019F0006091D60170E080E090E00E94B5259B01E7
:101A0000AC01C701B6010E9469260E94822570932D
:101A1000E9016093E8019091D9018091DB0199235C
:101A200071F1882309F448C040ED57E064E170E0AB
:101A300087E892E00E941D116091870270918802F0
:101A40008091890290918A020E9482257093EB0115
:101A50006093EA0120E030E048EC52E460919302A8
:101A60007091940280919502909196020E9469264D
:101A70000E9482257093EF016093EE011DC08823C0
:101A8000D9F068EC75E087E892E00E94EE136B01F4
:101A90007C016091D60170E080E090E00E94B52565
:101AA0009B01AC01C701B6010E9469260E948225F4
:101AB0007093EB016093EA019091D9018091DA0172
:101AC000992371F1882309F448C040ED57E064E19F
:101AD00070E08BE292E00E941D1160912B027091E8
:101AE0002C0280912D0290912E020E9482257093EB
:101AF000ED016093EC0120E030E048EC52E46091AD
:101B00003702709138028091390290913A020E9416
:101B100069260E9482257093EF016093EE011DC03B
:101B20008823D9F068EC75E08BE292E00E94EE1316
:101B30006B017C016091D60170E080E090E00E9432
:101B4000B5259B01AC01C701B6010E9469260E9420
:101B500082257093ED016093EC019091D901809101
:101B6000D70191110DC0882349F18091D60124E657
:101B7000829FC00111249093EF018093EE011EC05B
:101B800081111CC040ED57E064E170E08FE393E009
:101B90000E941D1120E030E048EC52E460914B03BC
:101BA00070914C0380914D0390914E030E946926E1
:101BB0000E9482257093EF016093EE018091D8011D
:101BC000811113C00E9486068091CE019091CF01B1
:101BD000A091D001B091D1018093D2019093D30113
:101BE000A093D401B093D50116C08BEF91E00E9471
:101BF0005819F12C8091F201F81620F78F2D0E94D0
:101C0000FD09EF2DF0E0EE0FFF1FE051FE4F918335
:101C10008083F394EFCF1F910F91FF90EF90DF90AF
:101C2000CF90089580919B038F5F80939B030895CD
:101C30008627682F62956827062E6695669560252B
:101C4000062E669560256770082E892F6695079485
:101C50006795902D86270694679590258627089589
:101C6000E8982A988EBD0DB407FEFDCF8EB56EBDE7
:101C70000DB407FEFDCF8EB52A9AE89A089560E06C
:101C80000C94300E88E20E943F0E807521F080E0B7
:101C90000E943F0EF7CF0895CF93C82F81E00E9496
:101CA0003F0E682F637E6C2B81E8CF910C94300E31
:101CB00022E0660F771F881F991F2A95D1F729E028
:101CC0003DE340E050E00E944F2766E0220F331FC3
:101CD000441F551F6A95D1F72093A5033093A6039F
:101CE0004093A7035093A803089580919E038530E5
:101CF00021F480919F03882311F080E0089584E00F
:101D000080939E030E944C0E81E0089590919E0363
:101D100081E094300CF080E00895CF93DF932A9A0D
:101D2000229A2A9A84B18C6284B980E58CBD8DB5E3
:101D300081608DBD6AEA8FEA0E94300E8FE20E94B8
:101D40003F0E8A3AB9F765E58FEA0E94300E8FE2BE
:101D50000E943F0E8535B9F7C6E2D5E0FE018491B9
:101D6000882339F03196649180680E94300E229663
:101D7000F5CF6091A40380EB0E94300E8091A50303
:101D80009091A603A091A703B091A803BD01882755
:101D9000992787E80E94300E8091A5039091A603B1
:101DA000A091A703B091A803692F7A2F8B2F9927B1
:101DB00088E80E94300E6091A50389E80E94300EE9
:101DC00084E080939E03DF91CF910895CF93DF93BA
:101DD000EC0180919E03843019F0853021F14DC0D3
:101DE0001092AC0310929F036091A4038FEF9FEFBA
:101DF0000E94180E9093A2038093A103D0939D0399
:101E0000C0939C0385E080939E030E94420E60E88D
:101E100085EA0E94300E80E10E944C0E62E08EE95D
:101E20000E94300E2AC08091AC0320919F0390E065
:101E3000049630E08217930724F080919F03883442
:101E4000E0F084E080939E030E944C0E8091AC03EE
:101E50008334B0F48091A1039091A203892B81F483
:101E60008091AB0386FF0FC09091A3039F3159F07F
:101E70008091AB038F71891731F08FEF9FEF05C011
:101E800081E090E002C080E090E0DF91CF91089582
:101E9000CF934093AC03FB0120E030E050E02417E7
:101EA000350744F4D901A355BC4F91919C932F5F02
:101EB0003F4FF5CF86FD04C0807E9091A303890F2C
:101EC0008093AB036091A4038FEF9FEF0E94180EE5
:101ED0009093A2038093A1039091AC038EEF891B92
:101EE00080939E030E94420E8CE00E944C0E60E0A4
:101EF00085EA0E94300E80919E038330DCF588E2F3
:101F00000E943F0E87FDF7CF80919E0387FF1BC085
:101F10009091AC0380919E03E0919C03F0919D030E
:101F2000E90FF11DE80FF11D87FDFA95C3816C2FB4
:101F30008091A1039091A2030E94180E9093A20396
:101F40008093A1030DC080919E03882329F08130E6
:101F500031F4C091A20304C0C091A10301C0CAEA38
:101F60006C2F80E80E94300E80919E038F5F8093DB
:101F70009E03C1CFCF91089580919E03853009F0D3
:101F80004DC060E485EA0E94300E84E20E943F0E5C
:101F90008093A003789488E20E943F0E8075D9F365
:101FA00080919F0381110FC0E0919C03F0919D03EC
:101FB00080919F0391E0980F90939F039091A403C9
:101FC000E80FF11D908380E00E943F0EE0919C039A
:101FD000F0919D0390919F0321E0290F20939F038F
:101FE000E90FF11D8083682F8091A1039091A203D6
:101FF0000E94180E9093A2038093A1038091AC03DA
:1020000020919F0390E0049630E082179307A4F09C
:1020100080919F03883408F4BECF089588E20E941F
:102020003F0E83FF09C084E080939E030E944C0E04
:1020300060E885EA0C94300E0895CF92DF92EF921B
:10204000FF921F93CF93DF93C82F162FD42FF90140
:10205000AFEFA60FA33028F4B0E0A45CBE4FAC9164
:1020600001C0A0E0B0E020E836E948E950E00E9475
:10207000B4276B017C01212F30E0A4ECB9E00E9471
:102080009E27DF019B01AC010E94B427C60ED71E1C
:10209000E81EF91EC701B6010E94580ED093A40392
:1020A0008C2F8F718093A30364E170E080E090E057
:1020B0000E94A31E8091A303882341F043E050E0D7
:1020C0006CEB7FE080E00E94A01D03C080E00E94D6
:1020D000C01D0E948D0EC093A9038C2FDF91CF915C
:1020E0001F91FF90EF90DF90CF9008958AEA93E0E0
:1020F0000E94E60E9093F3038093F2032091F20383
:102100003091F30381E02F3F3F4F09F480E00895C1
:102110000C94750E0C94480FEF92FF921F93CF937F
:10212000DF931F92CDB7DEB7182F7B0149830E9442
:10213000750E4981811105C049830E94761049813D
:10214000F5CFB701812F0F90DF91CF911F91FF90B5
:10215000EF900C94480FCF93C82F0E94860E8823CF
:10216000B9F0CC23D1F383B7817FC33021F0C230E3
:1021700021F49CE003C094E001C090E0892B83BF70
:1021800083B7816083BF889583B78E7F83BFE5CF98
:10219000CF910895EF92FF920F931F93FC01758BDF
:1021A000648B208F318F428F538FE0A2F1A202A364
:1021B00013A340E050E060E074E444AB55AB66AB81
:1021C00077AB1F910F91FF90EF900895FC01778BF3
:1021D000668B248F358F468F578F40E050E060E04C
:1021E00074E440AF51AF62AF73AF08958EE4809353
:1021F0007C0062E070E080E090E00E94A31E80918D
:102200007A00806480937A0080917A0086FDFCCF0A
:10221000809178002091790030E0322F22274427E6
:1022200037FD4095542F282B60E070E381E190E06A
:102230000E947127CA01B90108952F923F924F92CF
:102240005F926F927F928F929F92AF92BF92CF9246
:10225000DF92EF92FF920F931F93CF93DF93CDB74F
:10226000DEB7A8970FB6F894DEBF0FBECDBF98A714
:102270008FA37E8F6D8F8A010E94F6106D8B7E8BEF
:102280008F8B988F0E94741E4B015C016FA078A405
:1022900028E5620E711CC801A0E0B0E0898B9A8B22
:1022A000AB8BBC8BAFA1B8A554968C910E940F1F2D
:1022B000F30191838083BC01882777FD8095982F57
:1022C0000E94B5256B017C012DEC3CEC4CE054E404
:1022D0000E94162587FF0BC011E026E636E646EE83
:1022E00053E4C701B6010E94652618160CF010E0F1
:1022F0000E94741E681979098A099B0929893A89FB
:102300004B895C89261737074807590708F040C0F2
:102310000E94741E698F7A8F8B8F9C8F00E010E073
:102320001A8219824FA158A5405C5F4F58A34F8F66
:102330008FA198A58C5B9F4F9C878B87AFA1B8A579
:10234000A85BBF4FBAA3A9A3EFA1F8A5E45BFF4F19
:10235000FE87ED872FA138A5205B3F4F3CA32BA321
:102360004FA158A54C5A5F4F588B4F878FA198A506
:10237000865A9F4F9E838D832FA038A49BE5290EFC
:10238000311CAFA1B8A5A85ABF4FBEA3ADA344C18D
:10239000112309F487CFBCCF0E94741E298D3A8D7A
:1023A0004B8D5C8D621B730B840B950B29893A89CD
:1023B0004B895C89621773078407950708F034C15D
:1023C0000F5F1F4FEFA1F8A584A595A5A6A5B7A5FA
:1023D00080A791A7A2A7B3A784890E940F1FAFA1CE
:1023E000B8A595969C938E93949756968C910E943F
:1023F0000F1F3C01EFA1F8A597A386A324A135A147
:102400003A872987B901882777FD8095982F0E9400
:10241000B5256B017C01AFA1B8A5D4968D909D9098
:10242000AD90BC90D797A50194010E94B12420E003
:1024300030E040E85AE30E9469269B01AC01C501E7
:10244000B4010E94B2249B01AC01EFA1F8A564ABDA
:1024500075AB86AB97ABC701B6010E94B1244B01A7
:102460005C01AFA1B8A59C966D937D938D939C93D1
:102470009F97B301882777FD8095982F0E94B525F7
:102480006B017C01EFA1F8A540AC51AC62AC73AC20
:10249000A30192010E94B12420E030E040E85AE319
:1024A0000E9469269B01AC01C301B2010E94B224C3
:1024B0009B01AC01AFA1B8A5D8966D937D938D9388
:1024C0009C93DB97C701B6010E94B1246B017C018C
:1024D000EFA1F8A560AB71AB82AB93ABA501940102
:1024E000C501B4010E9469269B01AC01AF8DB8A162
:1024F0006D937D938D939C931397EB85FC85608101
:102500007181828193810E94B224AB85BC856D93D9
:102510007D938D939C931397A7019601C701B601F4
:102520000E9469269B01AC01E9A1FAA16083718335
:1025300082839383AD85BE856D917D918D919C91B4
:102540000E94B224ED85FE8560837183828393832C
:10255000AFA1B8A598964D905D906D907C909B979B
:10256000A3019201C501B4010E94B124EFA1F8A515
:1025700020A131A142A153A10E9469269B01AC0177
:10258000C301B2010E94B224AFA1B8A5DC966D933D
:102590007D938D939C93DF97A70196010E946926F6
:1025A0009B01AC01EBA1FCA16083718382839383C7
:1025B000AF85B8896D917D918D919C910E94B224D7
:1025C000EF85F8896083718382839383D1018C9135
:1025D000ED81FE818083ADA1BEA18D919C91E985A5
:1025E000FA858E179F070CF0F6C021E0F1012083D9
:1025F0000130110529F4F1018081AD81BE818C93F8
:10260000ED81FE819081D1018C91981729F0E981AB
:10261000FA813196FA83E98329813A814D8D5E8D65
:102620002417350708F4B8CEAD89BE89BD018827C7
:1026300077FD8095982F0E94B52520E030E04AE78D
:1026400054E40E941A2520E030E040E85AE30E945A
:1026500069262B013C01EFA1F8A5208D318D428D1B
:10266000538D0E9469264B015C01B80180E090E027
:102670000E94B3256B017C012FA038A4F4E42F0E37
:10268000311C9B01AC01D1016D917D918D919C918B
:102690000E941A250E94D0269B01AC01C501B401FD
:1026A0000E94692669837A838B839C83EFA1F8A5B6
:1026B0006487758786879787248D358D468D578DDE
:1026C000C301B2010E9469262B013C010FA118A58C
:1026D000045B1F4FA7019601D8016D917D918D91EB
:1026E0009C910E941A250E94D0269B01AC01C30137
:1026F000B2010E9469266D837E838F839887EFA144
:10270000F8A5608B718B828B938BA3019201C5011D
:10271000B4010E946926AFA0B8A4F4E5AF0EB11CC5
:10272000D5012D913D914D915C910E946926A701A3
:1027300096010E941A256B017C01EFA1F8A5608328
:102740007183828393832D813E814F815885698176
:102750007A818B819C810E9469269B01AC01AFA18B
:10276000B8A514966D937D938D939C931797C7018D
:10277000B6010E941A25EFA1F8A5608771878287AC
:102780009387D1011D921D921D921C921397F801FF
:102790001082118212821382D5011D921D921D9208
:1027A0001C921397A8960FB6F894DEBF0FBECDBF4C
:1027B000DF91CF911F910F91FF90EF90DF90CF901D
:1027C000BF90AF909F908F907F906F905F904F9051
:1027D0003F902F900895D1011C920ACF2F923F92E3
:1027E0004F925F926F927F928F929F92AF92BF9221
:1027F000CF92DF92EF92FF920F931F93CF93DF93CD
:1028000000D000D000D0CDB7DEB79E838D837A8311
:1028100069830E94F6102B013C0100E010E08D81DD
:102820009E81845B9F4F1C01ED81FE81E85BFF4F21
:10283000FC83EB8389819A810817190709F455C035
:10284000ED81FE8186890E940F1FED81FE8197A395
:1028500086A3BC01882777FD8095982F0E94B52517
:102860006B017C01ED81FE8180AC91ACA2ACB3AC7C
:10287000A50194010E94B12420E030E040E85AE331
:102880000E9469269B01AC01C501B4010E94B224DB
:102890009B01AC01ED81FE8160AF71AF82AF93AF60
:1028A000C701B6010E94B124ED81FE8160AB71AB1E
:1028B00082AB93AB9B01AC010E9469269B01AC01EA
:1028C000EB81FC816083718382839383F10160815A
:1028D0007181828193810E94B224F10160837183AE
:1028E000828393830F5F1F4FA5CFB80180E090E0F4
:1028F0000E94B3259B01AC01F1016081718182814D
:1029000093810E941A250E94D0266B017C01B2019E
:10291000882777FD8095982F0E94B52520E030E02C
:102920004AE754E40E941A2520E030E040E85AE3E8
:102930000E946926ED81FE81248D358D468D578D4F
:102940000E946926A70196010E946926ED81FE81F9
:10295000608B718B828B938BF101108211821282BA
:10296000138226960FB6F894DEBF0FBECDBFDF915F
:10297000CF911F910F91FF90EF90DF90CF90BF907C
:10298000AF909F908F907F906F905F904F903F900F
:102990002F900895FF920F931F93CF93DF93FC0125
:1029A0000081C181D281F8948981F02EF0948F2129
:1029B000898378941DE7115029F182E090E00E940C
:1029C000CB1E88818023B9F3F8948A818F218A8372
:1029D0008981802B8983789480EE91E00E94CB1EC0
:1029E000F89489818F21898386E490E00E94CB1E30
:1029F0008881802311E009F010E078948AE991E061
:102A00000E94CB1E812FDF91CF911F910F91FF90DC
:102A100008951F93CF93DF93FC011081C181D28170
:102A2000912F909560FF12C0F8948A8189238A8340
:102A30008981812B89838AE090E00E94CB1E8A8164
:102A4000812B8A83789487E390E011C0F8948A817F
:102A500089238A838981812B898381E490E00E9484
:102A6000CB1E8A81812B8A83789485E090E0DF9168
:102A7000CF911F910C94CB1E0F931F93CF93DF9395
:102A8000FC011081C181D281F8948981812B8983D5
:102A90008A81012F009580238A8383E090E00E9441
:102AA000CB1E8981802389838AE090E00E94CB1E1F
:102AB000C881789485E390E00E94CB1E1C2381E0BE
:102AC00009F480E0DF91CF911F910F910895CF928B
:102AD000DF92EF92FF920F931F93CF93DF931F929A
:102AE000CDB7DEB76C01E62E08E010E0FF24F394CA
:102AF00061E09F2D9E2109F460E0C60149830E9498
:102B00000915FF0C0150110949810115110581F7C3
:102B1000411115C0F894D6011196ED91FC911297D0
:102B200091818C918095892381831196ED91FC91FF
:102B3000129792818C9180958923828378940F904B
:102B4000DF91CF911F910F91FF90EF90DF90CF9089
:102B50000895EF92FF920F931F93CF93DF938C0111
:102B6000C8E0D0E0F12CEE24E394C8010E943C15AB
:102B70008111FE28EE0C2197C1F78F2DDF91CF91A7
:102B80001F910F91FF90EF900895CF92DF92FF92E7
:102B90000F931F93CF93DF931F92CDB7DEB78C01B6
:102BA000F62E40E065E579830E946715CF2C798188
:102BB000D72E88E0F82EF60161916F0140E0C80140
:102BC0000E946715FA94B9F70F90DF91CF911F918A
:102BD0000F91FF90DF90CF90089540E06CEC0C9443
:102BE0006715FC0113861586148627E030E0DF01A7
:102BF000A20FB31F13961C922115310519F0215015
:102C00003109F5CF08951F93CF93DF93EC01162F71
:102C100060E0812F0E94B41F612F70E0FB01E35A36
:102C2000F94FE491E883FB01EF58F94FE491F0E0AC
:102C3000EE0FFF1FEB57F94F859194919A8389838B
:102C4000CE01DF91CF911F910C94F115AF92BF92FD
:102C5000CF92DF92EF92FF920F931F93CF93DF9368
:102C60001F92CDB7DEB75C01D62EE72EFC0185851D
:102C700081115DC0C5010E94CA14811105C0F50112
:102C80001386158614866CC040E060EFC5010E9473
:102C9000671501E0F12CC12C11E0C5010E943C1523
:102CA000682FC50169830E943C156981613019F460
:102CB0008130B9F433C02F2D30E068131BC0F5010B
:102CC0008385181730F4E20FF31F8381802349F4C2
:102CD00002C0181731F060E0193058F4F50114877C
:102CE00008C0F501EF0DF11D8381802B838361E026
:102CF00009C0C12EF501E20FF31F8381902F90953B
:102D000089238383C5010E9409151F5F000F11F4F9
:102D1000F39401E0F7E0FF1508F0BFCF113438F06D
:102D2000F501C386C11009C081E0858706C0F501A1
:102D300013861586148680E013C0F50183818823ED
:102D4000B1F3ED2DFE2D80E090E0D501A80FB91F65
:102D500013962C912193019688309105B1F781E06B
:102D60000F90DF91CF911F910F91FF90EF90DF9027
:102D7000CF90BF90AF900895DC0180E0615038F0B3
:102D8000ED91E827F0E0E75BFA4F8491F7CF0895E3
:102D90000895FC0188EC96E1928B818B76836583A4
:102DA0001482108289E0818381E082838383089585
:102DB000FC0184810895CF93DF93EB0167E0CE019E
:102DC0000E94BC1691E02F81821390E0892FDF9141
:102DD000CF910895EF92FF920F931F93CF93DF93BC
:102DE000EC018B01E42E8D819E810E94F115F12C66
:102DF000B8018D819E810E942616882359F0FE100D
:102E000006C0B801CE010E94DB16811104C0F39404
:102E1000EF1470F780E0DF91CF911F910F91FF9039
:102E2000EF900895CF92DF92EF92FF920F931F934E
:102E3000CF93DF9300D0CDB7DEB76C01F42EE52E33
:102E4000FC018581968169837A830E94CA14698115
:102E50007A81882311F1F601858196810E94C5153A
:102E600040E06EEBF601858196810E9467150F2D7B
:102E70001E2D89E0F82EF601858196810E94A91504
:102E8000F80181938F01FA94B1F7F601858196815B
:102E90000E94CA1491E0813009F090E0892F0F90D0
:102EA0000F90DF91CF911F910F91FF90EF90DF90E6
:102EB000CF900895CF93DF93EA010E9412178823E1
:102EC00051F068E0CE010E94BC1691E02885821383
:102ED00090E0892F01C080E0DF91CF910895EF92BB
:102EE000FF920F931F93CF93DF93EC018B017A0135
:102EF0008D819E810E94CA14B8018D819E810E949D
:102F0000C51540E06EE48D819E810E94671540E00A
:102F1000F70162818D819E810E94671540E0F70173
:102F200063818D819E810E946715F80180818031C7
:102F300039F040E0F70164818D819E810E94671520
:102F40008D819E810E94CA14B8018D819E810E944C
:102F5000C515488168E48D819E810E94671564E1F2
:102F600070E080E090E00E94A31E8881882331F009
:102F70006AE070E080E090E00E94A31E8D819E8157
:102F8000DF91CF911F910F91FF90EF900C94CA1495
:102F9000EF92FF921F93CF93DF9300D0CDB7DEB7B0
:102FA0007C01FC018581968169837A830E94CA1421
:102FB00069817A81F701858196810E94C51540E07B
:102FC00064EBF701858196810E946715F701858181
:102FD00096810E943C15182FF701858196810E94E9
:102FE000CA1481E0111180E00F900F90DF91CF9112
:102FF0001F91FF90EF900895EF92FF920F931F9310
:10300000CF93DF93CDB7DEB72A970FB6F894DEBF24
:103010000FBECDBF7C018B01242FAE014F5F5F4FF0
:103020002A870E945A172A858823D1F0F8018081C7
:103030008031C1F02B3041F02C3021F02A3031F4B6
:103040008FE305C08FE703C08FE501C08FE18D835B
:10305000AE014F5F5F4FB801C7010E946F1702C0FA
:1030600080E001C081E02A960FB6F894DEBF0FBE63
:10307000CDBFDF91CF911F910F91FF90EF900895F9
:10308000CF93DF93CDB7DEB729970FB6F894DEBFA5
:103090000FBECDBFFB0120812031D1F0AE014F5FCB
:1030A0005F4F0E945A17882379F08D818F3351F03A
:1030B00020F48F3149F489E00CC08F3539F08F3717
:1030C00039F002C08AE005C080E003C08BE001C097
:1030D0008CE029960FB6F894DEBF0FBECDBFDF910E
:1030E000CF910895EF92FF920F931F93CF93DF93A9
:1030F000CDB7DEB761970FB6F894DEBF0FBECDBF78
:103100008C01FC01858196810E94F115F8011482E1
:10311000FF24F394BE01665F7F4FF801858196819D
:103120000E9426168823C9F1BE01665F7F4FC80141
:103130000E94DB16882371F3F8018081811108C099
:10314000BE01665F7F4FC8010E94C817811122C06F
:10315000AE014F5F5F4FBE01665F7F4FC8010E94A7
:103160001217F801E180BE01665F7F4FC8010E941F
:1031700040188E1518F4F801818106C0BE01665F03
:103180007F4FC8010E944018F801818384818F5FBE
:103190008483C0CFF801F082DBCF61960FB6F8943C
:1031A000DEBF0FBECDBFDF91CF911F910F91FF907A
:1031B000EF900895CF93DF93CDB7DEB729970FB681
:1031C000F894DEBF0FBECDBFAE014F5F5F4F0E94D0
:1031D000121781E09981911101C080E029960FB604
:1031E000F894DEBF0FBECDBFDF91CF9108958F92CF
:1031F0009F92AF92BF92CF92DF92EF92FF920F9386
:103200001F93CF93DF93EC018A016950633048F438
:10321000E62FF0E0EE0FFF1FE15CFE4F8080918013
:1032200004C09EEE892E92E0992E0115110501F140
:103230008B818823E9F0888181111AC00E94741E55
:103240006B017C01AA2497FCA094BA2CB801CE0192
:103250000E94DA1881111FC00E94741E6819790932
:103260008A099B096C157D058E059F05A0F4EECF9C
:10327000B401882777FD8095982FDF91CF911F911A
:103280000F91FF90EF90DF90CF90BF90AF909F9005
:103290008F900C94A31EDF91CF911F910F91FF90FF
:1032A000EF90DF90CF90BF90AF909F908F90089558
:1032B000CF93DF93EC018D819E810E94CA148D8192
:1032C0009E810E94ED15488164E48D819E810E945B
:1032D00067158A81882341F040E050E06981CE0182
:1032E000DF91CF910C94F718DF91CF910895FA01F7
:1032F000208148E0249F90011124818190E0982F43
:103300008827990F990F990F282B392BDB018C9166
:103310008031C1F4678170E08681AB01481B51099F
:10332000CA019695982F8827979587950E943B27E5
:1033300060517109207F53E0220F331F5A95E1F746
:10334000260F371FC9010895EF92FF920F931F9325
:10335000CF93DF93CDB7DEB729970FB6F894DEBFD2
:103360000FBECDBF8C017B01AE014F5F5F4F0E944E
:103370005A17882341F0AE014F5F5F4FB701C80174
:103380000E94771902C080E894EE29960FB6F8944F
:10339000DEBF0FBECDBFDF91CF911F910F91FF9088
:1033A000EF900895813824EE920774F0BC018827CD
:1033B00077FD8095982F0E94B52520E030E040E011
:1033C0005CE30E946926089560E070E08EEF92EC65
:1033D00008950E94A4190C94D2198091240490E0BD
:1033E00020912504821B9109089520912504809144
:1033F0002404281750F4E22FF0E0EA5DFB4F8081AF
:1034000090E02F5F2093250408958FEF9FEF08959C
:10341000E091250480912404E81730F4F0E0EA5D9F
:10342000FB4F808190E008958FEF9FEF08950895FE
:10343000CF92DF92EF92FF920F931F93CF93DF9380
:103440007C01CB018A0120910004222389F0EB0149
:103450006B01C40ED51ECC15DD0569F06991D7014D
:10346000ED91FC910190F081E02DC7010995F3CF1A
:10347000642F0E94251BC801DF91CF911F910F91EE
:10348000FF90EF90DF90CF900895CF93DF931F923E
:10349000CDB7DEB76983209100042223D1F02091BB
:1034A0000104203240F021E030E0FC01338322832C
:1034B00080E090E015C080910204E82FF0E0ED5F1D
:1034C000FB4F998190838F5F809302048093010466
:1034D00005C061E0CE0101960E94251B81E090E0CD
:1034E0000F90DF91CF910895FC011382128248EE74
:1034F00053E060E070E0448355836683778389E41A
:1035000091E0918380830895109225041092240401
:1035100010920204109201040C94B41A81E080937A
:103520000004609323041092020410920104089591
:103530000C948E1A0F93062F21E04091010463E052
:1035400074E0809123040E94D21A10920204109217
:103550000104109200040F91089561E00C949A1AEE
:1035600084EF93E00C94741A1092B30481E080937A
:10357000B1041092B00461E082E10E94ED1F61E0AD
:1035800083E10E94ED1FE9EBF0E080818E7F808374
:1035900080818D7F808380E28093B80085E4809372
:1035A000BC0008950F93413208F046C09091B304D7
:1035B0009111FCCF92E09093B3040093B1049FEF7C
:1035C0009093460410928B0440938A04FB016CE8AC
:1035D00074E0DB019A2F961B941718F491919D9338
:1035E000F9CF1092B2049091B204880F892B809386
:1035F000B2048091B004813041F41092B004809103
:10360000B2048093BB0085EC01C085EE8093BC00C2
:10361000222321F08091B3048230E1F380914604AB
:103620008F3F61F080914604803251F080914604D2
:10363000803341F483E007C081E005C080E003C02F
:1036400082E001C084E00F910895613298F42091E6
:10365000B304243089F460936804FC018AE694E0A2
:10366000DC012A2F281B261718F421912D93F9CF5E
:1036700080E0089581E0089582E0089585ED8093CB
:10368000BC008091BC0084FDFCCF1092B30408956F
:1036900085EC8093BC001092B30408951F920F92A2
:1036A0000FB60F9211242F933F934F935F936F9315
:1036B0007F938F939F93AF93BF93EF93FF938091EB
:1036C000B900887F803609F49CC068F5883209F417
:1036D0005BC090F4803109F454C038F4882309F4B5
:1036E000F5C0883009F44DC0F5C0883109F44CC0EC
:1036F000803209F45DC0EEC0803409F468C048F43B
:10370000803309F455C0883309F0E4C0809346043F
:10371000A8C0803509F44FC0883509F45DC08834ED
:1037200009F0D8C0D5C0883909F4C6C0A8F48837D4
:1037300009F467C038F4883609F463C0803709F4A7
:1037400060C0C8C0883809F4B7C0803909F45FC0C8
:10375000803809F0BFC05BC0803B09F485C038F4F5
:10376000803A09F466C0883A09F47EC0B3C0803C50
:1037700009F4A6C0883C09F4A3C0883B09F489C0B9
:10378000A9C08091B20410C090918B0480918A04EA
:10379000981770F5E0918B0481E08E0F80938B0475
:1037A000F0E0E457FB4F80818093BB0085EC85C03F
:1037B000809346048DC0E0918B0481E08E0F80934E
:1037C0008B048091BB00F0E0E457FB4F8083909125
:1037D0008B0480918A046DC0E0918B0481E08E0F90
:1037E00080938B048091BB00F0E0E457FB4F808313
:1037F0008091B10481116CC081E08093B00484EAAF
:1038000060C083E08093B30410924704CFCF8091CF
:103810004704803208F050C0E091470481E08E0FE9
:10382000809347048091BB00F0E0E85BFB4F80830E
:10383000BDCF80914704803230F4E0914704F0E03E
:10384000E85BFB4F10820E943E1B6091470470E0D2
:10385000E091AC04F091AD0488E494E009951092F5
:1038600047040E94481B36C084E08093B304109242
:10387000690410926804E091AE04F091AF040995D8
:1038800080916804811105C081E0809368041092E2
:103890006A04E091690481E08E0F80936904F0E08E
:1038A000E659FB4F80818093BB0090916904809121
:1038B0006804981708F47ACF85E88093BC000AC0A2
:1038C00085EC8093BC001092B30404C010924604AF
:1038D0000E943E1BFF91EF91BF91AF919F918F91FD
:1038E0007F916F915F914F913F912F910F900FBEFC
:1038F0000F901F901895FC011382128289E591E0C8
:1039000091838083648341872287138608951F9360
:10391000CF93DF93EC01162F6C8184EF93E00E942C
:103920008E1AE091F403F091F5036B85612B019001
:10393000F081E02D84EF93E0099584EF93E0DF912F
:10394000CF911F910C94AD1A28E0FC01238760E011
:103950000C94871C1F93CF93DF93EC01162F6460A8
:103960000E94871C81E090E00E94CB1E612F6B7F3C
:10397000CE010E94871C82E390E0DF91CF911F91DE
:103980000C94CB1E1F93CF93DF93EC01162F0E9454
:10399000871C612FCE01DF91CF911F910C94AA1C3F
:1039A000EF92FF921F93CF93DF931F92CDB7DEB7B5
:1039B0007C01162F607F642B49830E94C21C80E12A
:1039C000189FB00111244981642BC7010F90DF912A
:1039D000CF911F91FF90EF900C94C21C41E00E9488
:1039E000D01C81E090E0089540E00C94D01C61E090
:1039F0000E94F41C80ED97E00C94CB1E62E00E94C4
:103A0000F41C80ED97E00C94CB1ECF93DF93CDB7E1
:103A1000DEB728970FB6F894DEBF0FBECDBF28E003
:103A2000E5E1F1E0DE01119601900D922A95E1F7B2
:103A3000FC012085241710F44FEF420FFE01319650
:103A4000E40FF11DE40FF11D2081260F2068622F85
:103A500028960FB6F894DEBF0FBECDBFDF91CF9191
:103A60000C94F41CFC016681262F246026836C6074
:103A70000C94F41CCF93DF93EC01423018F08D814D
:103A800088608D834887222329F0413019F48D8185
:103A900084608D8362E370E080E090E00E94A31E6A
:103AA0006B85CE010E94871C68EE73E080E090E099
:103AB0000E94A31E60E3CE010E94C21C84E991E132
:103AC0000E94CB1E60E3CE010E94C21C84E991E1FA
:103AD0000E94CB1E60E3CE010E94C21C86E990E0EA
:103AE0000E94CB1E60E2CE010E94C21C6D8160620A
:103AF000CE010E94F41C84E08E83CE010E94321D10
:103B0000CE010E94F71C82E08F8366E0CE010E9406
:103B1000F41CCE01DF91CF910C94FE1CCF93DF9368
:103B2000EC0184EF93E00E94841A1D8220E04A8514
:103B30006985CE01DF91CF910C943A1D0C948E1DB6
:103B40008230E8F4E82FF0E0EE0FFF1FEC54FB4F5B
:103B500071836083813041F0809169008C7F842B78
:103B600080936900E89A089580916900440F551F79
:103B7000440F551F837F842B80936900E99A089531
:103B8000823068F4813011F0E89801C0E998E82F9C
:103B9000F0E0EE0FFF1FEC54FB4F118210820895EE
:103BA0001F920F920FB60F9211242F933F934F93B2
:103BB0005F936F937F938F939F93AF93BF93EF9395
:103BC000FF938091B4049091B504892B29F0E09182
:103BD000B404F091B5040995FF91EF91BF91AF91B5
:103BE0009F918F917F916F915F914F913F912F9115
:103BF0000F900FBE0F901F9018951F920F920FB647
:103C00000F9211242F933F934F935F936F937F9362
:103C10008F939F93AF93BF93EF93FF938091B604DD
:103C20009091B704892B29F0E091B604F091B70484
:103C30000995FF91EF91BF91AF919F918F917F91E6
:103C40006F915F914F913F912F910F900FBE0F9009
:103C50001F9018951F920F920FB60F9211242F9359
:103C60003F938F939F93AF93BF938091B9049091AB
:103C7000BA04A091BB04B091BC043091B80426E012
:103C8000230F2D3720F40296A11DB11D05C029E890
:103C9000230F0396A11DB11D2093B8048093B9048E
:103CA0009093BA04A093BB04B093BC048091BD046C
:103CB0009091BE04A091BF04B091C0040196A11DD3
:103CC000B11D8093BD049093BE04A093BF04B09334
:103CD000C004BF91AF919F918F913F912F910F9011
:103CE0000FBE0F901F9018952FB7F8946091B904EC
:103CF0007091BA048091BB049091BC042FBF0895C9
:103D00003FB7F8948091BD049091BE04A091BF0488
:103D1000B091C00426B5A89B05C02F3F19F00196AD
:103D2000A11DB11D3FBF6627782F892F9A2F620FE3
:103D3000711D811D911D43E0660F771F881F991F1C
:103D40004A95D1F70895CF92DF92EF92FF92CF93E9
:103D5000DF936B017C010E94801EEB01C114D10432
:103D6000E104F10489F00E94B0240E94801E6C1BC3
:103D70007D0B683E734090F381E0C81AD108E108DA
:103D8000F108C851DC4FEACFDF91CF91FF90EF905F
:103D9000DF90CF9008958330910528F0880F991F08
:103DA00004970197F1F70895789484B5826084BDF3
:103DB00084B5816084BD85B5826085BD85B581602F
:103DC00085BDEEE6F0E0808181608083E1E8F0E08F
:103DD0001082808182608083808181608083E0E8BE
:103DE000F0E0808181608083E1EBF0E0808184609D
:103DF0008083E0EBF0E0808181608083EAE7F0E09F
:103E000080818460808380818260808380818E7FD6
:103E100080838081806880831092C10008958E30F5
:103E200008F08E5087702091140190E4299F900132
:103E30001124822B80937C0080917A00806480938F
:103E40007A0080917A0086FDFCCF809178002091E5
:103E5000790090E0922B08951F93CF93DF93182F52
:103E6000EB0161E00E94B41F209711F460E004C0F0
:103E7000CF3FD10539F461E0812FDF91CF911F91C0
:103E80000C94ED1FE12FF0E0E75BF94FE491E33094
:103E9000F9F048F4E130B9F0E230A1F584B5806280
:103EA00084BDC8BD34C0E730E9F0E83019F1E43032
:103EB00049F580918000806280938000D0938B00D0
:103EC000C0938A0024C084B5806884BDC7BD1FC06C
:103ED00080918000806880938000D0938900C09397
:103EE000880015C08091B00080688093B000C093B6
:103EF000B3000DC08091B00080628093B000C09389
:103F0000B40005C0C038D1050CF0B5CFAFCFDF91FC
:103F1000CF911F910895833081F028F4813099F07A
:103F20008230A1F008958730A9F08830B9F084304C
:103F3000D1F4809180008F7D03C0809180008F77C5
:103F400080938000089584B58F7702C084B58F7DFB
:103F500084BD08958091B0008F7703C08091B00038
:103F60008F7D8093B0000895CF93DF9390E0FC01A4
:103F7000E35AF94F2491FC01EF58F94F84918823BB
:103F800049F190E0880F991FFC01E756F94FA59180
:103F9000B4918157994FFC01C591D4919FB761119C
:103FA00008C0F8948C91209582238C938881822379
:103FB0000AC0623051F4F8948C91322F30958323EB
:103FC0008C938881822B888304C0F8948C91822BF7
:103FD0008C939FBFDF91CF9108950F931F93CF9341
:103FE000DF931F92CDB7DEB7282F30E0F901E75BF2
:103FF000F94F8491F901E35AF94F1491F901EF58FF
:10400000F94F04910023C9F0882321F069830E94AD
:104010008B1F6981E02FF0E0EE0FFF1FE157F94F92
:10402000A591B4919FB7F8948C91611103C010953C
:10403000812301C0812B8C939FBF0F90DF91CF9183
:104040001F910F910895CF93DF93282F30E0F9014E
:10405000E75BF94F8491F901E35AF94FD491F901E3
:10406000EF58F94FC491CC2391F081110E948B1F1E
:10407000EC2FF0E0EE0FFF1FEB57F94FA591B49135
:104080002C912D2381E090E021F480E002C080E0BB
:1040900090E0DF91CF910895FC01818D228D90E019
:1040A000805C9F4F821B91098F7399270895FC01B3
:1040B000918D828D981731F0828DE80FF11D858DDD
:1040C00090E008958FEF9FEF0895FC01918D828D10
:1040D000981761F0828DDF01A80FB11D5D968C915C
:1040E000928D9F5F9F73928F90E008958FEF9FEF67
:1040F000089583EE91E2892B49F080E090E0892BCE
:1041000029F00E94E32181110C9400000895FC0124
:10411000848DDF01A80FB11DA35ABF4F2C91848D50
:1041200090E001968F739927848FA689B7892C9385
:10413000A089B1898C9180648C93938D848D981320
:1041400006C00288F389E02D80818F7D80830895E9
:10415000CF93DF93EC01888D8823C9F0EA89FB892E
:10416000808185FD05C0A889B9898C9186FD0FC025
:104170000FB607FCF5CF808185FFF2CFA889B989FA
:104180008C9185FFEDCFCE010E948720E7CFDF9194
:10419000CF910895CF92DF92FF920F931F93CF9309
:1041A000DF931F92CDB7DEB76C0181E0D601589640
:1041B0008C9358975B969C915B975C968C915C97DF
:1041C000981307C05096ED91FC915197808185FD21
:1041D0002EC0F601038D10E00F5F1F4F0F731127E4
:1041E000F02EF601848DF81211C00FB607FCF9CF3E
:1041F000D6015096ED91FC915197808185FFF1CFCA
:10420000C60169830E9487206981EBCF838DE80F07
:10421000F11DE35AFF4F6083D6015B960C935B97C9
:104220005296ED91FC915397808180620CC0D6012B
:104230005696ED91FC91579760835096ED91FC91C5
:10424000519780818064808381E090E00F90DF91BE
:10425000CF911F910F91FF90DF90CF900895BF9263
:10426000CF92DF92EF92FF92CF93DF93EC016A013E
:104270007B01B22E60E874E88EE190E0A701960120
:104280000E944F2721503109410951095695479500
:1042900037952795E889F98982E08083211580E1A7
:1042A000380798F0E889F989108260E472E48FE0B9
:1042B00090E0A70196010E944F2721503109410942
:1042C00051095695479537952795EC85FD8530839F
:1042D000EE85FF852083188EEC89FD89B082EA89FE
:1042E000FB89808180618083EA89FB898081886085
:1042F0008083EA89FB89808180688083EA89FB89E1
:1043000080818F7D8083DF91CF91FF90EF90DF9050
:10431000CF90BF9008951F920F920FB60F92112465
:104320002F938F939F93EF93FF93E091D104F0919C
:10433000D2048081E091D704F091D80482FD12C0AC
:1043400090818091DA048F5F8F732091DB04821754
:1043500051F0E091DA04F0E0EF53FB4F958F80933A
:10436000DA0401C08081FF91EF919F918F912F918D
:104370000F900FBE0F901F9018951F920F920FB6BF
:104380000F9211242F933F934F935F936F937F93DB
:104390008F939F93AF93BF93EF93FF9381EC94E040
:1043A0000E948720FF91EF91BF91AF919F918F91D4
:1043B0007F916F915F914F913F912F910F900FBE21
:1043C0000F901F90189581EC94E00E944C2021E002
:1043D000892B09F420E0822F08951092C4041092D2
:1043E000C30488EE93E0A0E0B0E08093C50490930E
:1043F000C604A093C704B093C80481E691E09093EB
:10440000C2048093C10485EC90E09093CE04809325
:10441000CD0484EC90E09093D0048093CF0480ECA2
:1044200090E09093D2048093D10481EC90E090933B
:10443000D4048093D30482EC90E09093D6048093CC
:10444000D50486EC90E09093D8048093D704109222
:10445000DA041092DB041092DC041092DD0408955B
:1044600008950E94D41E0E9430220E942109C9E7AB
:10447000D0E20E94420A2097E1F30E947920F9CF0E
:10448000CF92DF92EF92FF920F931F93CF93DF9320
:104490006C017A01EB01E60EF71E00E010E0CE158C
:1044A000DF0561F06991D601ED91FC910190F081F9
:1044B000E02DC6010995080F191FF1CFC801DF9142
:1044C000CF911F910F91FF90EF90DF90CF900895C3
:1044D0006115710581F0DB010D900020E9F7AD0158
:1044E00041505109461B570BDC01ED91FC910280B4
:1044F000F381E02D099480E090E00895EF92FF921F
:104500000F931F93CF93DF938C01FB01C0E0D0E0AA
:1045100064917F018FEFE81AF80A662361F0D801F1
:10452000ED91FC910190F081E02DC8010995C80F33
:10453000D91FF701EDCFCE01DF91CF911F910F91E0
:10454000FF90EF9008950C946822DC01ED91FC91AE
:104550000190F081E02D09946DE671E00C946822E1
:104560000F931F93CF93DF93EC010E947E228C0167
:10457000CE010E94AC22800F911FDF91CF911F913D
:104580000F9108950F931F93CF93DF93EC010E9437
:1045900068228C01CE010E94AC22800F911FDF9116
:1045A000CF911F910F9108958F929F92AF92BF92DA
:1045B000CF92DF92EF92FF920F931F93CF93DF93EF
:1045C000CDB7DEB7A1970FB6F894DEBF0FBECDBF53
:1045D0007C01C42EE52FCB01D22E19A221E02D158E
:1045E00010F02AE0D22E8E010F5D1F4F8D2C912CE2
:1045F000A12CB12C6C2D7E2FA50194010E944F2778
:104600008C2DD29E80191124015011098A3014F486
:10461000805D01C0895CF801808321153105410569
:10462000510521F0C22EE32FCA01E4CFB801C70122
:104630000E946822A1960FB6F894DEBF0FBECDBFD0
:10464000DF91CF911F910F91FF90EF90DF90CF906E
:10465000BF90AF909F908F900895CF92DF92EF928E
:10466000FF920F931F93CF93DF93EC016A017B01BD
:104670002115310579F4E881F9810190F081E02D6F
:10468000642FDF91CF911F910F91FF90EF90DF90FA
:10469000CF9009942A303105E9F477FF1AC06DE212
:1046A0000E94A5228C0144275527BA014C195D09A7
:1046B0006E097F092AE0CE010E94D422800F911F4B
:1046C000DF91CF911F910F91FF90EF90DF90CF90EE
:1046D00008952AE0B701A601CE01DF91CF911F9185
:1046E0000F91FF90EF90DF90CF900C94D4229A011D
:1046F000AB01662757FD6095762F0C942D230F9301
:104700001F93CF93DF93EC019A01AB01662757FD0E
:104710006095762F0E942D238C01CE010E94AC2241
:10472000800F911FDF91CF911F910F910895211557
:10473000310541F4DC01ED91FC910190F081E02D17
:10474000642F09940C94D4229A01462F50E060E023
:1047500070E00C9497239A01AB0160E070E00C9438
:1047600097234F925F926F927F928F929F92AF9218
:10477000BF92CF92DF92EF92FF920F931F93CF934E
:10478000DF93EC016A017B01B22E9A01AB01C701F4
:10479000B6010E940E27882319F060E771E027C058
:1047A00026013701E89477F82FEF3FEF4FE75FE7F7
:1047B000C301B2010E940E2781110DC02FEF3FEF00
:1047C0004FE75FE7C301B2010E94162518161CF4DB
:1047D00064E771E00CC02FEF3FEF4FE75FE4C701E4
:1047E000B6010E9465261816ACF468E771E0CE01A8
:1047F000DF91CF911F910F91FF90EF90DF90CF90BD
:10480000BF90AF909F908F907F906F905F904F90F0
:104810000C9468222FEF3FEF4FE75FECC701B60122
:104820000E94162587FDE1CF20E030E0A901C701F5
:10483000B6010E94162587FF0AC06DE2CE010E94D4
:10484000A5228C01F7FAF094F7F8F09402C000E08A
:1048500010E0A12C60E070E080E09FE3AB1441F039
:1048600020E030E040E251E40E941A25A394F6CF04
:104870009B01AC01C701B6010E94B2246B017C010F
:104880000E9487252B013C010E94B3259B01AC01AE
:10489000C701B6010E94B1246B017C012AE0B3017B
:1048A000A201CE010E94D422080F191FBB2039F0AB
:1048B0006CE771E0CE010E946822080F191F7B2C63
:1048C000772041F120E030E040E251E4C701B60139
:1048D0000E9469266B017C010E9482254B01AA245B
:1048E00097FCA094BA2C2AE030E0B501A401CE01D7
:1048F0000E942D23080F191FC501B4010E94B52580
:104900009B01AC01C701B6010E94B1246B017C017F
:104910007A94D6CFC801DF91CF911F910F91FF906C
:10492000EF90DF90CF90BF90AF909F908F907F904F
:104930006F905F904F9008950C94B1230F931F9345
:10494000CF93DF93EC010E94B1238C01CE010E9432
:10495000AC22800F911FDF91CF911F910F9108958D
:1049600008955058BB27AA270ED075C166D130F0E4
:104970006BD120F031F49F3F11F41EF45BC10EF4B3
:10498000E095E7FB51C1E92F77D180F3BA176207B1
:1049900073078407950718F071F49EF58FC10EF424
:1049A000E0950B2EBA2FA02D0B01B90190010C013F
:1049B000CA01A0011124FF27591B99F0593F50F457
:1049C000503E68F11A16F040A22F232F342F4427AF
:1049D000585FF3CF469537952795A795F0405395A7
:1049E000C9F77EF41F16BA0B620B730B840BBAF077
:1049F0009150A1F0FF0FBB1F661F771F881FC2F7E2
:104A00000EC0BA0F621F731F841F48F487957795F5
:104A10006795B795F7959E3F08F0B3CF9395880FAC
:104A200008F09927EE0F979587950895D9D008F447
:104A300081E008950CD00FC107D140F0FED030F0D6
:104A400021F45F3F19F0F0C0511139C1F3C014D106
:104A500098F39923C9F35523B1F3951B550BBB2745
:104A6000AA2762177307840738F09F5F5F4F220FF2
:104A7000331F441FAA1FA9F333D00E2E3AF0E0E8EB
:104A800030D091505040E695001CCAF729D0FE2F37
:104A900027D0660F771F881FBB1F261737074807C9
:104AA000AB07B0E809F0BB0B802DBF01FF2793587F
:104AB0005F4F2AF09E3F510568F0B6C000C15F3FCE
:104AC000ECF3983EDCF3869577956795B795F79567
:104AD0009F5FC9F7880F911D9695879597F908955F
:104AE000E1E0660F771F881FBB1F621773078407FB
:104AF000BA0720F0621B730B840BBA0BEE1F88F70A
:104B0000E095089504D06894B111D9C00895BCD03F
:104B100088F09F5790F0B92F9927B751A0F0D1F0A6
:104B2000660F771F881F991F1AF0BA95C9F712C030
:104B3000B13081F0C3D0B1E00895C0C0672F782FA5
:104B40008827B85F39F0B93FCCF38695779567959C
:104B5000B395D9F73EF490958095709561957F4F08
:104B60008F4F9F4F0895E89409C097FB3EF49095AE
:104B70008095709561957F4F8F4F9F4F9923A9F036
:104B8000F92F96E9BB279395F695879577956795C5
:104B9000B795F111F8CFFAF4BB0F11F460FF1BC009
:104BA0006F5F7F4F8F4F9F4F16C0882311F096E99C
:104BB00011C0772321F09EE8872F762F05C066234A
:104BC00071F096E8862F70E060E02AF09A95660F03
:104BD000771F881FDAF7880F9695879597F90895BC
:104BE000990F0008550FAA0BE0E8FEEF16161706FE
:104BF000E807F907C0F012161306E407F50798F066
:104C0000621B730B840B950B39F40A2661F0232B7E
:104C1000242B252B21F408950A2609F4A140A695FA
:104C20008FEF811D811D089597F99F6780E870E0DF
:104C300060E008959FEF80EC089500240A94161612
:104C4000170618060906089500240A94121613067A
:104C5000140605060895092E0394000C11F4882308
:104C600052F0BB0F40F4BF2B11F460FF04C06F5F24
:104C70007F4F8F4F9F4F089557FD9058440F551FFA
:104C800059F05F3F71F04795880F97FB991F61F0CE
:104C90009F3F79F087950895121613061406551F45
:104CA000F2CF4695F1DF08C0161617061806991FB1
:104CB000F1CF86957105610508940895E894BB27A6
:104CC00066277727CB0197F908958ADF08F48FEFDD
:104CD00008950BD0C0CFB1DF28F0B6DF18F09523D0
:104CE00009F0A2CFA7CF1124EACFC6DFA0F3959F8A
:104CF000D1F3950F50E0551F629FF001729FBB27C3
:104D0000F00DB11D639FAA27F00DB11DAA1F649F6E
:104D10006627B00DA11D661F829F2227B00DA11D21
:104D2000621F739FB00DA11D621F839FA00D611DA7
:104D3000221F749F3327A00D611D231F849F600DC8
:104D4000211D822F762F6A2F11249F5750408AF001
:104D5000E1F088234AF0EE0FFF1FBB1F661F771F8D
:104D6000881F91505040A9F79E3F510570F05CCFCD
:104D7000A6CF5F3FECF3983EDCF386957795679579
:104D8000B795F795E7959F5FC1F7FE2B880F911DAB
:104D90009695879597F9089511F40EF44BCF42C07C
:104DA00073DFD0F39923D9F3CEF39F57550B87FFC9
:104DB00047D00024A0E640EA900180585695979588
:104DC00028F4805C660F771F881F20F026173707AE
:104DD000480730F4621B730B840B202931294A2BBE
:104DE000A69517940794202531254A2758F7660F72
:104DF000771F881F20F026173707480730F4620B0B
:104E0000730B840B200D311D411DA09581F7B90155
:104E1000842F9158880F969587950895E1DE880B29
:104E2000990B08959F3F31F0915020F48795779525
:104E30006795B795880F911D9695879597F9089571
:104E400091505040660F771F881FD2F70895AA1B14
:104E5000BB1B51E107C0AA1FBB1FA617B70710F065
:104E6000A61BB70B881F991F5A95A9F78095909597
:104E7000BC01CD01089597FB072E16F4009407D0CE
:104E800077FD09D00E94272707FC05D03EF49095B6
:104E900081959F4F0895709561957F4F0895A1E288
:104EA0001A2EAA1BBB1BFD010DC0AA1FBB1FEE1FA4
:104EB000FF1FA217B307E407F50720F0A21BB30BEF
:104EC000E40BF50B661F771F881F991F1A9469F76B
:104ED00060957095809590959B01AC01BD01CF01C7
:104EE0000895052E97FB1EF400940E94882757FD15
:104EF00007D00E944F2707FC03D04EF40C9488275C
:104F000050954095309521953F4F4F4F5F4F0895F5
:104F100090958095709561957F4F8F4F9F4F089525
:104F2000EE0FFF1F0590F491E02D09940E949E273B
:104F3000332312F48A1B9B0B0C94AF27A29FB00162
:104F4000B39FC001A39F700D811D1124911DB29FBD
:104F5000700D811D1124911D08950E949E27B7FF99
:104F60000895821B930B08950E949E27A59F900D84
:104F7000B49F900DA49F800D911D11240895F89465
:024F8000FFCF61
:104F820000005E05800001D2000C010166668043CC
:104F920027003F000100004000140054004C43442D
:104FA200206E6F7420666F756E64004C43442066F9
:104FB2006F756E6420693263203078002B565A5E1A
:104FC20000BC00770100000000451A181AED19F51F
:104FD20019081A171A00000000EE1C4022000000F7
:104FE20000CA2040224C2065205720A8200D0A002C
:0E4FF2006E616E00696E66006F7666002E00BE
:00000001FF
